:020000040800F2
:1000000000040020DF1B0008A50A0008A70A00085A
:10001000AB0A0008AF0A0008B30A0008000000009D
:10002000000000000000000000000000B70A000807
:10003000B90A000800000000BB0A0008BD0A000859
:10004000C7060008FF1B0008FF1B0008FF1B000875
:10005000FF1B0008FF1B0008FF1B0008FF1B000818
:10006000FF1B0008FF1B0008FF1B0008FF1B000808
:10007000FF1B0008FF1B0008FF1B0008FF1B0008F8
:10008000FF1B0008FF1B0008FF1B0008FF1B0008E8
:10009000FF1B0008FF1B0008FF1B0008FF1B0008D8
:1000A000FF1B0008FF1B0008FF1B0008FF1B0008C8
:1000B000FF1B0008FF1B0008FF1B0008FF1B0008B8
:1000C000FF1B0008FF1B0008FF1B0008FF1B0008A8
:1000D000FF1B0008FF1B0008FF1B0008FF1B000898
:1000E000FF1B0008FF1B0008FF1B0008FF1B000888
:1000F000FF1B0008FF1B0008FF1B0008FF1B000878
:10010000FF1B0008FF1B0008FF1B0008FF1B000867
:10011000FF1B0008FF1B0008FF1B0008FF1B000857
:10012000FF1B0008FF1B0008FF1B0008FF1B000847
:1001300000F002F800F03AF80AA090E8000C8244BF
:100140008344AAF10107DA4501D100F02FF8AFF29C
:10015000090EBAE80F0013F0010F18BFFB1A43F0A5
:1001600001031847241F0000441F0000103A24BF59
:1001700078C878C1FAD8520724BF30C830C144BF0C
:1001800004680C607047000000230024002500264E
:10019000103A28BF78C1FBD8520728BF30C148BFEA
:1001A0000B6070471FB51FBD10B510BD01F03FFDBE
:1001B0001146FFF7F7FF00F0E9FB01F05DFD03B426
:1001C000FFF7F2FF03BC01F065FD0000002904DA2F
:1001D0004A4211B22D22027001E0202202706422F4
:1001E00091FBF2F23032D3B2421C104613706422FB
:1001F00091FBF2F302FB13110A2291FBF2F230326F
:10020000D3B2421C104613700A2291FBF2F302FB98
:10021000131101F13002D3B2421C10461370704723
:1002200008B54020ADF8000003208DF8020014202E
:100230008DF803006946FE4801F0F8F88020ADF81B
:10024000000003208DF8020014208DF80300694699
:10025000F74801F0EBF808BD1E2001E0411EC8B2CE
:100260000028FBD1704741F2883000E0401E002892
:10027000FCD1704700B58020ED4910310860402066
:100280000860FFF7E9FFEA480830006808B9012074
:1002900000E0002000F0800008B1002000BD8020B8
:1002A000E34914310860FFF7D7FFE14808300068E0
:1002B00000F0800008B10020F0E78020DC49143114
:1002C0000860FFF7C9FF0120E8E700B54020D849E2
:1002D00014310860FFF7C0FF8020D5491431086051
:1002E000FFF7BAFF4020D24910310860FFF7B4FF92
:1002F0008020CF4910310860FFF7AEFF00BD00B588
:100300004020CB4914310860FFF7A6FF8020C84980
:1003100014310860FFF7A0FF4020C5491031086084
:10032000FFF79AFF4020C24914310860FFF794FF9D
:1003300000BD00B54020BE4914310860FFF78CFFB6
:100340008020BB4910310860FFF786FF4020B84984
:1003500010310860FFF780FF4020B5491431086074
:10036000FFF77AFF00BD00B54020B14914310860A5
:10037000FFF772FF8020AE4910310860FFF76CFF75
:100380004020AB4910310860FFF766FFA8480830ED
:10039000006800F0800038B14020A54914310860A1
:1003A000FFF75AFF002000BD4020A149143108602A
:1003B000FFF752FF0120F6E700B5024608231BE0D5
:1003C00040209B4914310860FFF746FF02F080008F
:1003D00020B1802096491031086003E080209449C4
:1003E000143108605006020EFFF736FF4020904996
:1003F00010310860FFF730FF181EA3F10101CBB2E6
:10040000DED140208A491431086000BD00B50823C0
:100410000022802086491031086015E05006020E47
:100420004020834914310860FFF716FF40208049BF
:1004300010310860FFF710FF7D480830006800F0B9
:10044000800008B142F00102181EA3F10101CBB2F5
:10045000E4D14020764914310860104600BD70B5E3
:1004600006460C461546FFF705FF08B9002070BD8B
:100470003046FFF7A1FFFFF776FF18B9FFF725FF1A
:100480000020F4E72046FFF797FFFFF76CFF2846B0
:10049000FFF792FFFFF767FFFFF717FFFFF7E3FE96
:1004A0000120E4E770B504460D46FFF7E3FE08B906
:1004B000002070BD2046FFF77FFFFFF754FF30B9E3
:1004C000FFF703FF01205B4908700020F1E7284691
:1004D000FFF772FFFFF747FFFFF7CCFE611CC8B2C2
:1004E000FFF76AFFFFF73FFFFFF790FF0646FFF7B2
:1004F00020FFFFF7EAFE3046DBE710B500F0E0FA38
:100500004FF4803000F0FCFA00F039FB4A490870E3
:1005100008460078012826D1002000F076FB002054
:1005200000F085FB4FF4806000F078FB022001F0C2
:10053000BBF8102001F0CCF84FF4E0114FF48030FC
:1005400000F046FB012000F04FFB00BF392000F017
:10055000FAFA0028FAD0022000F049FB00BF00F0B0
:100560004FFB0828FBD101210C2000F017FC0121D2
:10057000302000F013FC0121C02000F00FFC01210D
:1005800040F2011000F00AFC10BD08B501213C202A
:1005900000F004FC4FF40070ADF8000018208DF856
:1005A000030003208DF802006946244800F03EFF56
:1005B0004FF48060ADF8000004208DF80300694618
:1005C0001E4800F033FF08BD00B587B001214FF48D
:1005D000904000F0E3FB0020ADF80400ADF8060009
:1005E0004FF40070ADF808000020ADF80A0001A932
:1005F000134800F0D4FC4FF4E13003900020ADF834
:100600001000ADF81200ADF81400ADF818000C2081
:10061000ADF8160003A90A4800F067FC40F2255126
:10062000074800F0A4FD012240F22551044809E0EA
:10063000000C0140090000200400002000080140D7
:100640000038014000F0CEFC0121FE4800F0BEFC65
:1006500007B000BD08B54FF4E06000F019FE0020BF
:100660008DF80100684600F018FE08BD10B50121A4
:10067000C80200F0A0FB4FF4C07000F0D0FD412094
:1006800000F0D6FD502000F0EEFD00F0F7FD00F088
:10069000E0FD10BD01B502E00098401E00900098FA
:1006A0000028F9D108BD01B509E0002000E0401C98
:1006B0004CF250318842FAD30099491E00910099BA
:1006C0000029F2D108BD10B5502000F0C6FD00F0A1
:1006D000D5FD10BD10B504462146DA4800F0E3FC14
:1006E0000120FFF7E0FF10BD00B500226B21D020F4
:1006F000FFF7B5FE07221921D020FFF7B0FE062232
:100700001A21D020FFF7ABFE18221B21D020FFF7C3
:10071000A6FE01221C21D020FFF7A1FE00BD00B5DE
:100720003C21D020FFF7BEFEC74908703B21D020F6
:10073000FFF7B8FEC449487008460078497840EA97
:10074000012000B2C14908800846B0F90000A42188
:1007500090FBF1F000B2BD4908803E21D020FFF7A8
:10076000A1FEB94988703D21D020FFF79BFEB64914
:10077000C87008468078C97840EA012000B2B449C0
:1007800008800846B0F90000A42190FBF1F000B207
:10079000AF4908804021D020FFF784FEAA490871A4
:1007A0003F21D020FFF77EFEA74948710846007917
:1007B000497940EA012000B2A64908800846B0F90C
:1007C0000000A42190FBF1F000B2A249088000BD16
:1007D0002DE9F0414421D020FFF764FE9A490870CA
:1007E0004321D020FFF75EFE974948700846007805
:1007F000497840EA012000B2944908800846B0F9DF
:10080000000001F0D6FB06464FF06632924B01F035
:1008100049FA044601F09EFB00B28C49088046214B
:10082000D020FFF73FFE884988704521D020FFF790
:1008300039FE8549C87008468078C97840EA0120A9
:1008400000B2834908800846B0F9000001F0B1FB0E
:1008500006464FF06632804B01F024FA044601F060
:1008600079FB00B27A4908804821D020FFF71AFEB0
:10087000754908714721D020FFF714FE724948716D
:1008800008460079497940EA012000B271490880A0
:100890000846B0F9000001F08CFB06464FF06632C6
:1008A0006D4B01F0FFF9044601F054FB00B26949B9
:1008B0000880BDE8F08100B502223721D020FFF783
:1008C000CEFD0A20FFF7EFFE01220A211820FFF7D4
:1008D000C6FD0A20FFF7E7FE03211820FFF7E2FD1F
:1008E0005949087004211820FFF7DCFD564948706B
:1008F00008460078497840EA012000B25349088050
:1009000005211820FFF7CEFD4F49887006211820D9
:10091000FFF7C8FD4C49C87008468078C97840EA9E
:10092000012000B24A49088007211820FFF7BAFDCC
:100930004549087108211820FFF7B4FD4249487164
:1009400008460079497940EA012000B2414908800F
:1009500000BD70B506460D463046FFF7BBFE284683
:10096000FFF7B8FE3A20FFF7B5FE002405E03B494B
:10097000085DFFF7AFFE601CC4B2042CF7DB20203B
:10098000FFF7A8FE2020FFF7A5FE70BDFFF7B5FD1D
:10099000FFF7FBFDFFF718FEFFF742FC0A20FFF709
:1009A00082FEFFF7A1FE77E0FFF7B9FE2748B0F916
:1009B00000102A48FFF70AFC58214120FFF7C9FF21
:1009C0002348B0F900102548FFF700FC59214120C9
:1009D000FFF7BFFF1F48B0F900102048FFF7F6FBF4
:1009E0005A214120FFF7B5FFFFF7F2FE1748B0F993
:1009F00000101A48FFF7EAFB58214720FFF7A9FF2C
:100A00001348B0F900101548FFF7E0FB59214720C3
:100A1000FFF79FFF0F48B0F900101048FFF7D6FB13
:100A20005A214720FFF795FFFFF745FF0748B0F928
:100A300000100A48FFF7CAFB58214D20FFF789FF35
:100A400003480DE000380140280000200A00002083
:100A50000C0000200E0000206666304005000020DB
:100A6000B0F900100D48FFF7B1FB59214D20FFF7F9
:100A700070FF0B48B0F900100848FFF7A7FB5A2198
:100A80004D20FFF766FF0D20FFF724FE0A20FFF739
:100A900021FE0A20FFF707FE86E700000500002080
:100AA0000E000020704700BFFEE700BFFEE700BF5A
:100AB000FEE700BFFEE770477047704770470000D1
:100AC000DF48006840F00100DD49086008464068E2
:100AD000DC490840DA49486008460068DA490840BD
:100AE000D74908600846006820F48020086008465E
:100AF000406820F4FE0048604FF41F008860704793
:100B0000CF49096821F48031CD4A11601146096846
:100B100021F480211160B0F5803F03D0B0F5802F23
:100B20000ED106E0C649096841F48031C44A11601B
:100B300007E0C349096841F4A021C14A116000E0FF
:100B400000BF00BF704710B50146002200230020FF
:100B50004A11012A02D1BA4C236806E0022A02D1C6
:100B6000B74C236A01E0B64C636A01F01F0201240E
:100B700094401C400CB1012000E0002010BD38B5AD
:100B8000002000900024002500BF3120FFF7DBFF8C
:100B900005460098401C00900098B0F5A06F01D069
:100BA000002DF2D03120FFF7CEFF08B1012400E084
:100BB0000024204638BD01460020A14A106820F0DC
:100BC000F80040EAC10010607047A0490860704713
:100BD000024600209A4B586820F47C1042EA010338
:100BE0001843974B5860704798490866704701460C
:100BF0000020934A506820F003000843506070477B
:100C00008F48406800F00C007047014600208C4A75
:100C1000506820F0F0000843506070470146002003
:100C2000874A506820F4E0600843506070470146EE
:100C30000020834A506820F4605040EAC1005060B0
:100C4000704729B17E4A527A02437D4B5A7204E0C2
:100C50007B4A527A82437A4B5A7270477B49D83129
:100C60000860704701460020754A506820F44040F3
:100C70000843506070470021714A20321170704A59
:100C800082F82010012802D004280AD104E00121B2
:100C90006B4A2032117005E00521694A203211703B
:100CA00000E000BF00BF70476949086070476449B1
:100CB000096A0143624A1162704765494439086014
:100CC000704730B500210022002400235C4D6D6880
:100CD00005F00C0121B1042905D0082923D105E034
:100CE0005C4D056022E05B4D05601FE0544D6D6872
:100CF00005F47012524D6D6805F48034022505EB41
:100D000092421CB9544D554305600BE04C4D6D6843
:100D100005F400351DB1504D5543056002E04D4DC1
:100D20005543056002E04B4D056000BF00BF444DD8
:100D30006D6805F0F0010909484D6B5C0568DD4000
:100D400045603F4D6D6805F4E061090A434D6B5CF9
:100D50004568DD4085603A4D6D6805F46051C90A0B
:100D60003E4D6B5C4568DD40C560354D6D6805F4F2
:100D70004041890B3A4D6B5CC568B5FBF3F50561E5
:100D800030BD29B12E4A526902432D4B5A6104E00D
:100D90002B4A526982432A4B5A61704729B1284A2B
:100DA00092690243264B9A6104E0254A9269824384
:100DB000234B9A61704729B1214AD2690243204BE3
:100DC000DA6104E01E4AD26982431D4BDA61704742
:100DD00029B11B4AD2680243194BDA6004E0184A71
:100DE000D2688243164BDA60704729B1144A1269FF
:100DF0000243134B1A6104E0114A12698243104BFB
:100E00001A61704712494039086070470F49C86439
:100E100070470B49C87170470948406A40F08070BC
:100E200007494862704701460020054A92680A4017
:100E30000AB1012000E00020704701498872704724
:100E4000001002400000FFF8FFFFF6FE00004242E3
:100E50008004424200127A0000093D001200002086
:100E60002200002010B50446E248844209D1012145
:100E70008803FFF7ADFF00214FF48040FFF7A8FF84
:100E800032E0DD48844209D101214804FFF7ADFF7B
:100E900000214FF40030FFF7A8FF25E0D748844237
:100EA00009D101218804FFF7A0FF00214FF4802021
:100EB000FFF79BFF18E0D248844209D10121C80402
:100EC000FFF793FF00214FF40020FFF78EFF0BE0A8
:100ED000CC48844208D101210805FFF786FF002194
:100EE0004FF48010FFF781FF10BD2DE9F04786B069
:100EF00005460E460024A24600BF00BF0027B08969
:100F000000B100BF2F462C8A4CF6FF700440F088D9
:100F100004432C82AC894EF6F3100440B08831892A
:100F20000843718908430443AC81AC8A4FF6FF4003
:100F30000440B0890443AC8201A8FFF7C2FEAD486B
:100F4000874202D1DDF810A001E0DDF80CA00AEB29
:100F5000CA0000EB0A1031688900B0FBF1F8642088
:100F6000B8FBF0F004012009642101FB1089322054
:100F700000EB0910B0FBF1F000F00F0004432C81EE
:100F800006B0BDE8F0874FF4165101600021818062
:100F9000C18001810C21418100218181704710B500
:100FA00002460020108A4FF2FF0318400B884C883D
:100FB00023438C882343CC8823431843108210BDDD
:100FC0000021018041808180C180704721B18289E8
:100FD00042F40052828104E082894DF6FF731A4088
:100FE00082817047F0B503460024002600250020CA
:100FF00040F66A17B94200D100BF1846C1F3421447
:1010000001F01F06012707FA06F5012C01D10C306B
:1010100004E0022C01D1103000E014301AB107684E
:101020002F43076002E00768AF430760F0BD1AB1C5
:10103000838A0B43838202E0838A8B4383827047D7
:10104000028A4FF6F0731A400282028A0A43028231
:10105000704782894FF2FF731A40828182890A4366
:101060008281704721B1828942F00202828104E0CC
:1010700082894FF6FD731A4082817047028A4FF6CB
:10108000DF731A400282028A0A430282704721B14A
:10109000028A42F48042028204E0028A4BF6FF7325
:1010A0001A4002827047C1F30802828070470146ED
:1010B0008888C0F308007047818941F0010181816F
:1010C0007047028BD2B20283028B42EA0122028372
:1010D0007047028B02F47F420283028B0A43028331
:1010E000704721B1828A42F02002828204E0828A23
:1010F0004FF6DF731A408282704721B1828A42F034
:101100001002828204E0828A4FF6EF731A408282D4
:10111000704721B1828A42F00802828204E0828A0A
:101120004FF6F7731A4082827047828A4FF6FB733C
:101130001A408282828A0A438282704721B1828A5F
:1011400042F00202828204E0828A4FF6FD731A4066
:101150008282704702460020B1F5007F00D100BFB7
:1011600013880B400BB1012000E00020704701F410
:101170000072B2F5007F00D100BFCA430280704701
:1011800070B50246002400230025002040F66A16B0
:10119000B14200D100BFC1F3421501F01F03012687
:1011A00006FA03F3012D02D19689334006E0022DA1
:1011B00002D1168A334001E0968A33400C12012690
:1011C00006FA04F41688344013B10CB1012000E093
:1011D000002070BD10B50022002340F66A14A14221
:1011E00000D100BF0A1201249440A3B2DC43048062
:1011F00010BD00000038014000440040004800409D
:10120000004C00400050004010B50121C802FFF71B
:10121000ECFD00214FF40060FFF7E7FD10BD002159
:10122000194A126822F4C0710143174A11607047CD
:1012300008B5002100911449096821F07F0100914F
:1012400000F07F01009A114300910F4A009911604C
:1012500008BD01200D490860704700F07F010A4A6F
:10126000121F1160704740F08001074A121F116081
:1012700070470548001D0068C0B270470020024951
:10128000091D086070470000042C0040A48005423E
:1012900031490143314A1160704770B50021002384
:1012A0000F22C47804B32D4C246804F4E064C4F520
:1012B000E064210AC1F10403CA40447804FA03F14E
:1012C0008478144021430901254C0678A1550478FF
:1012D00004F01F050124AC4005786D11AD0005F147
:1012E000E025C5F8004109E0047804F01F05012459
:1012F000AC401C4D0678761145F8264070BD1A4A60
:101300000A400243154B1B1F1A60704739B1134A3C
:10131000121D12680243114B1B1D1A6006E00F4A92
:10132000121D126882430D4B1B1D1A607047042862
:1013300008D14FF0E021096941F004014FF0E022AB
:10134000116107E04FF0E021096921F004014FF03D
:10135000E0221161704700000000FA050CED00E08A
:1013600000E400E080E100E080FFFF1F10B50446CC
:10137000C448844208D101210420FFF729FD00213F
:101380000420FFF725FD46E0BF48844208D1012133
:101390000820FFF71DFD00210820FFF719FD3AE0A6
:1013A000BA48844208D101211020FFF711FD002125
:1013B0001020FFF70DFD2EE0B548844208D1012131
:1013C0002020FFF705FD00212020FFF701FD22E08E
:1013D000B048844208D101214020FFF7F9FC0021E8
:1013E0004020FFF7F5FC16E0AB48844208D101210C
:1013F0008020FFF7EDFC00218020FFF7E9FC0AE0E8
:10140000A648844207D101218015FFF7E1FC0021A5
:10141000A015FFF7DDFC10BD10B501210846FFF750
:10142000D7FC00210120FFF7D3FC10BD2DE9F041CE
:10143000024600250026002000230024002791F802
:1014400003C00CF00F0591F803C00CF0100CBCF1B8
:10145000000F03D091F802C04CEA050591F800C0D6
:10146000BCF1000F31D0146800202BE04FF0010CCC
:101470000CFA00F3B1F800C00CEA03069E4220D13A
:1014800083004FF00F0C0CFA03F7BC4305FA03FC82
:101490004CEA040491F803C0BCF1280F06D14FF0C8
:1014A000010C0CFA00FCC2F814C00AE091F803C069
:1014B000BCF1480F05D14FF0010C0CFA00FCC2F84A
:1014C00010C0401C0828D1D31460B1F800C0BCF192
:1014D000FF0F34DD546800202EE000F1080C4FF0BF
:1014E000010808FA0CF3B1F800C00CEA03069E42AA
:1014F00021D183004FF00F0C0CFA03F7BC4305FA1F
:1015000003FC4CEA040491F803C0BCF1280F05D198
:1015100000F1080C08FA0CF8C2F8148091F803C026
:10152000BCF1480F07D100F1080C4FF0010808FA90
:101530000CF8C2F81080401C0828CED35460BDE8D7
:10154000F0814FF6FF710180022181700421C1708A
:1015500070470246002093680B400BB1012000E069
:10156000002070470146886880B27047024600201C
:10157000D3680B400BB1012000E00020704701460A
:10158000C86880B2704701617047416170470AB115
:10159000016100E041617047C16070474FF48032E3
:1015A0000A43826181618261826982697047024671
:1015B00000203B4B18684FF68073184040EA021039
:1015C0000843374B186070473649C8617047F0B51B
:1015D0000A460023002400210025314E7168C0F323
:1015E000034583B200F44016B6F5401F08D121F040
:1015F00070612B4E766826F07066294F7E6012E08F
:1016000000F48016B6F5801F06D1032606FA05F40D
:10161000A14341F0706106E0460D360103FA06F67B
:10162000B14341F0706122B1460D360103FA06F66E
:1016300031431B4E7160F0BD30B500228B071C0F8B
:101640000F2303FA04F2164B08338C1053F824309E
:101650009343134C08348D1044F8253023468C10E6
:1016600053F824308C07240F00FA04F423430C4C65
:1016700008348D1044F8253030BD0A49DC3108604B
:101680007047000000080140000C014000100140BC
:101690000014014000180140001C014000200140DE
:1016A000000001400000204201460020FD4A106871
:1016B00000F03800084310607047FA49096821F0CB
:1016C0000801F84A1160114609680143116070472A
:1016D000F449096821F01001F24A116011460968C5
:1016E000014311607047F048EE494860EF48486098
:1016F0007047EC48006940F08000EA490861704793
:101700000420E849C96801F0010109B101200EE097
:10171000E449C96801F0040109B1022007E0E14988
:10172000C96801F0100109B1032000E004207047EE
:1017300008B500200090FF20009002E00098401EB5
:10174000009000980028F9D108BD70B50446042522
:10175000FFF7D6FF054605E0FFF7EAFFFFF7D0FFEA
:101760000546641E012D01D1002CF5D104B90525D3
:10177000284670BD70B50546042440F6FF70FFF79B
:10178000E4FF0446042C19D1C648006940F0020069
:10179000C449086108464561006940F0400008619D
:1017A00040F6FF70FFF7D1FF0446052C06D0BD4878
:1017B000006941F6FD710840BA490861204670BDD4
:1017C00010B5042440F6FF70FFF7BFFF0446042C59
:1017D00018D1B448006940F00400B24908610846D5
:1017E000006940F04000086140F6FF70FFF7ADFF70
:1017F0000446052C06D0AB48006941F6FB71084051
:10180000A8490861204610BD10B5042440F6FF70B9
:10181000FFF79BFF0446042C3BD1A348A1498860F5
:10182000A24888600846006940F020000861084628
:10183000006940F04000086140F6FF70FFF785FF47
:101840000446042C1CD19748006941F6DF7108401A
:10185000944908610846006940F010000861A5201D
:10186000934908800F20FFF770FF0446052C10D025
:101870008C48006941F6EF7108408A49086108E028
:10188000052C06D08748006941F6EF71084085496C
:101890000861204610BDF8B506460D460424002018
:1018A00000900F20FFF751FF0446042C28D17D48FB
:1018B000006940F001007B49086135800F20FFF787
:1018C00044FF0446042C12D1B01C0090280C00994F
:1018D00008800F20FFF739FF0446052C10D071480F
:1018E000006941F6FE7108406E49086108E0052C68
:1018F00006D06C48006941F6FE71084069490861EC
:101900002046F8BD70B505460E4604240F20FFF7AB
:101910001CFF0446042C13D16248006940F001000A
:10192000604908612E800F20FFF70FFF0446052C49
:1019300006D05C48006941F6FE71084059490861CB
:10194000204670BD70B505460E4604240F20FFF7F3
:10195000FCFE0446042C17D1534852498860534872
:1019600088600846006940F0100008612E800F2052
:10197000FFF7EBFE0446052C06D04A48006941F605
:10198000EF71084047490861204670BD2DE9F047D6
:1019900004464FF6FF763746B046B1460425E44389
:1019A000E6B2C4F30727C4F307484FEA14690F20CF
:1019B000FFF7CBFE0546042D40D13B4839498860EE
:1019C0003A4888600846006940F010000861FF2E20
:1019D00006D03748083006800F20FFF7B6FE0546D0
:1019E000042D08D1FF2F06D031480A3007800F2080
:1019F000FFF7ABFE0546042D0AD1B8F1FF0F07D063
:101A00002B480C30A0F800800F20FFF79EFE054603
:101A1000042D0AD1B9F1FF0F07D025480E30A0F8E8
:101A200000900F20FFF791FE0546052D06D01D48BA
:101A3000006941F6EF7108401A4908612846BDE87F
:101A4000F08770B50546042440F6FF70FFF77DFE71
:101A50000446042C49D11448124988601348886010
:101A60000846006940F0200008610846006940F01F
:101A70004000086140F6FF70FFF767FE0446042C43
:101A80002AD10848006941F6DF710840054908611C
:101A90000846006940F0100008615DB1002004496B
:101AA00008800AE00020024023016745AB89EFCDA2
:101AB00000F8FF1FA5204549088040F6FF70FFF79A
:101AC00044FE0446052C10D04148006941F6EF71F0
:101AD00008403F49086108E0052C06D03C480069F1
:101AE00041F6DF7108403A490861204670BD2DE992
:101AF000F04105460E4617460424364834498860AE
:101B0000354888600F20FFF720FE0446042C19D1C9
:101B10002F48006940F010002D49086147F0F80097
:101B2000304328432949891C08800F20FFF70DFE08
:101B30000446052C06D02648006941F6EF7108409E
:101B4000234908612046BDE8F0812148C06980082A
:101B500070471F48006A704700201D49C96901F09D
:101B6000020109B1012000E000207047002018495F
:101B7000096801F0200109B1012000E00020704750
:101B800029B1134A12690243114B1A6104E0104A49
:101B9000126982430E4B1A617047014600200129E9
:101BA00008D10B4AD26902F001020AB1012008E013
:101BB000002006E0064AD2680A400AB1012000E08F
:101BC000002070470249C8607047000000F8FF1FFE
:101BD0000020024023016745AB89EFCD70470B48D9
:101BE00080470B4981F308880A480047FEE7FEE773
:101BF000FEE7FEE7FEE7FEE7FEE7FEE7FEE7FEE7BD
:101C000005480649064A074B70470000DD1B0008DF
:101C10009806002031010008980000209806002056
:101C20009802002098020020704770477047754660
:101C300000F02CF8AE4605006946534620F0070038
:101C4000854618B020B5FFF7DBFFBDE820404FF018
:101C500000064FF000074FF000084FF0000B21F096
:101C60000701AC46ACE8C009ACE8C009ACE8C00963
:101C7000ACE8C0098D46704710B50446AFF300804C
:101C80002046BDE81040FEF79ABA000000487047B1
:101C90003400002001491820ABBEFEE726000200F8
:101CA000704700002DE9C04130B4DFF8A0C23CEA23
:101CB000111418BF3CEA131400F0EC8081EA03050C
:101CC0001CEA111444EAD57418BF1CEA131500F07D
:101CD000C780A4EB05044FF0004545EAC12145EA61
:101CE000C32341EA505143EA525304F17F749942AD
:101CF00004F500344FEAC0204FEAC22208BF9042E8
:101D000000F09C804FEA13650FF24016765D4FEAB3
:101D1000134506FB05F7C7F1807706FB07F74FEA87
:101D2000D737A7FB03687642C8F58038A7FB06CEF5
:101D300038BFA8F1010807FB08E64FF0000EA6FB2C
:101D4000028CE6FB03CEDCF1000CCEF1004E38BF76
:101D5000AEF1010EA6FB0C584FF000074FF0000546
:101D6000E6FB0E87A1FB08C6A0FB07CE16EB0E060E
:101D700045F10005E1FB076515F1E04E7EBFA4F5D6
:101D800080345FEA46066D4116F1800745F1000593
:101D90004FEA17274FEA066647EA0567A6F1DE46CF
:101DA000B6F1805F4FEA15251FD9384624F0010CA3
:101DB00005EBC471BCF1FE6F01EB0C1102D8F0BC55
:101DC000BDE8008124425CBF01F5801E9EEAC47F0D
:101DD00002D4F0BCBDE80081244238D4F0BCA1F1AB
:101DE000C041BDE8004100F049B94FEAD22242EAC1
:101DF00043524FEAD323A7FB02864FEAD02040EAA2
:101E0000415007FB03661EEA0E0F4FEAD12105FB86
:101E1000026658BFA6EB0056B6EB00564FEA520ECC
:101E20004EEAC37E18EB0E0E56EB530EBDD518EBE3
:101E300002085E417F1C55F10005B6E74FF480159E
:101E40004FF000074FF000064FF00008ADE7F0BC80
:101E50004FF0000001F1C04101F00041BDE80081F8
:101E600011EA0C1F0CEA131500D00CE013EA0C1F4A
:101E700000F025804FF00000F0BC81EA030101F082
:101E80000041BDE80081F0BCBDE8004181EA0301EA
:101E900000F0F4B8F0BCBDE8004170B500F0A0F867
:101EA000097EFC3E00F007B881EA03014FF0000014
:101EB00001F00041704781EA030100F0DFB8F0BC97
:101EC000BDE800414FF0000021497047FFFDFBF9DC
:101ED000F7F5F4F2F0EEEDEBE9E8E6E4E3E1E0DE5D
:101EE000DDDBDAD8D7D5D4D3D1D0CFCDCCCBCAC8CF
:101EF000C7C6C5C4C2C1C0BFBEBDBCBBBAB9B8B7F6
:101F0000B6B5B4B3B2B1B0AFAEADACABAAA9A8A8E8
:101F1000A7A6A5A4A3A3A2A1A09F9F9E9D9C9C9BB6
:101F20009A99999897979695959493939291919061
:101F30008F8F8E8E8D8C8C8B8B8A898988888787F2
:101F40008685858484838382828181800000FF0767
:101F50000000F87F4FEA41034FEA5353A3F5806333
:101F6000D3F11E03C8BFD3F1210C0CDD4FF00042AA
:101F700042EAC12242EA505232FA03FC8CEAE17C86
:101F8000ACEBE1707047102BC4BF0020704703F525
:101F9000787CBCF1FF3F04D06FF0004282EA210060
:101FA000704770B500F01CF84992248000207047FB
:101FB000F2E710F0004248BF4042B0FA80F310FA56
:101FC00003F10AD0C3F11D0303F580634FEA4150CA
:101FD00002EB035202EBD12170474FF00000704733
:101FE0000EF1020E2EF0030E5EF8046B364205D49D
:101FF000012A43EB030515F5001F12D8012841EB18
:10200000010C1CF5001F0CD80ED14FEAD17C15F540
:10201000001F0CEB4C0C0CF1020C08BF4CEBD37CFA
:1020200004E04FF0080C01E04FEAD37C0CEB4C05C8
:1020300026FA05F606F00706B6F1040C06D20EEBFA
:10204000860CBDE870404CF0010C6047DFE80CF0F6
:10205000090B02024FF000414FF00000A1F50021F2
:1020600070BD19461046012851EB010418BFD4F584
:10207000001484BF002001F0004170BD0808A0F5E5
:1020800000114FEA31017047A8200008000000202D
:10209000280000006C010008D02000082800002063
:1020A0007006000088010008000000000000000029
:1020B000000000000000000000000000000001021D
:1020C00003040102030406070809020406080000CD
:0400000508000131BD
:00000001FF
